{
  "contractName": "AwardsToken",
  "abi": [
    {
      "inputs": [
        {
          "internalType": "address",
          "name": "owner",
          "type": "address"
        }
      ],
      "name": "balanceOf",
      "outputs": [
        {
          "internalType": "uint256",
          "name": "",
          "type": "uint256"
        }
      ],
      "stateMutability": "view",
      "type": "function",
      "constant": true
    },
    {
      "inputs": [
        {
          "internalType": "string",
          "name": "tokenId",
          "type": "string"
        }
      ],
      "name": "ownerOf",
      "outputs": [
        {
          "internalType": "address",
          "name": "",
          "type": "address"
        }
      ],
      "stateMutability": "view",
      "type": "function",
      "constant": true
    },
    {
      "inputs": [],
      "name": "name",
      "outputs": [
        {
          "internalType": "string",
          "name": "",
          "type": "string"
        }
      ],
      "stateMutability": "view",
      "type": "function",
      "constant": true
    },
    {
      "inputs": [],
      "name": "symbol",
      "outputs": [
        {
          "internalType": "string",
          "name": "",
          "type": "string"
        }
      ],
      "stateMutability": "view",
      "type": "function",
      "constant": true
    },
    {
      "inputs": [
        {
          "internalType": "address",
          "name": "to",
          "type": "address"
        },
        {
          "internalType": "string",
          "name": "tokenId",
          "type": "string"
        }
      ],
      "name": "mint",
      "outputs": [],
      "stateMutability": "nonpayable",
      "type": "function"
    },
    {
      "inputs": [
        {
          "internalType": "string",
          "name": "tokenId",
          "type": "string"
        }
      ],
      "name": "burn",
      "outputs": [],
      "stateMutability": "nonpayable",
      "type": "function"
    }
  ],
  "bytecode": "0x60806040526040518060400160405280600681526020017f41776172647300000000000000000000000000000000000000000000000000008152506000908051906020019062000051929190620000b4565b506040518060400160405280600381526020017f4157540000000000000000000000000000000000000000000000000000000000815250600190805190602001906200009f929190620000b4565b50348015620000ad57600080fd5b50620001c9565b828054620000c29062000164565b90600052602060002090601f016020900481019282620000e6576000855562000132565b82601f106200010157805160ff191683800117855562000132565b8280016001018555821562000132579182015b828111156200013157825182559160200191906001019062000114565b5b50905062000141919062000145565b5090565b5b808211156200016057600081600090555060010162000146565b5090565b600060028204905060018216806200017d57607f821691505b602082108114156200019457620001936200019a565b5b50919050565b7f4e487b7100000000000000000000000000000000000000000000000000000000600052602260045260246000fd5b610d8080620001d96000396000f3fe608060405234801561001057600080fd5b50600436106100625760003560e01c806306fdde031461006757806370a0823114610085578063920ffa26146100b557806395d89b41146100e5578063d0def52114610103578063dafa1d2d1461011f575b600080fd5b61006f61013b565b60405161007c9190610900565b60405180910390f35b61009f600480360381019061009a91906106fc565b6101cd565b6040516100ac91906109a2565b60405180910390f35b6100cf60048036038101906100ca9190610779565b610285565b6040516100dc91906108e5565b60405180910390f35b6100ed610342565b6040516100fa9190610900565b60405180910390f35b61011d60048036038101906101189190610725565b6103d4565b005b61013960048036038101906101349190610779565b6103e2565b005b60606000805461014a90610b42565b80601f016020809104026020016040519081016040528092919081815260200182805461017690610b42565b80156101c35780601f10610198576101008083540402835291602001916101c3565b820191906000526020600020905b8154815290600101906020018083116101a657829003601f168201915b5050505050905090565b60008073ffffffffffffffffffffffffffffffffffffffff168273ffffffffffffffffffffffffffffffffffffffff16141561023e576040517f08c379a000000000000000000000000000000000000000000000000000000000815260040161023590610942565b60405180910390fd5b600360008373ffffffffffffffffffffffffffffffffffffffff1673ffffffffffffffffffffffffffffffffffffffff168152602001908152602001600020549050919050565b60008060028360405161029891906108ce565b908152602001604051809103902060009054906101000a900473ffffffffffffffffffffffffffffffffffffffff169050600073ffffffffffffffffffffffffffffffffffffffff168173ffffffffffffffffffffffffffffffffffffffff161415610339576040517f08c379a000000000000000000000000000000000000000000000000000000000815260040161033090610962565b60405180910390fd5b80915050919050565b60606001805461035190610b42565b80601f016020809104026020016040519081016040528092919081815260200182805461037d90610b42565b80156103ca5780601f1061039f576101008083540402835291602001916103ca565b820191906000526020600020905b8154815290600101906020018083116103ad57829003601f168201915b5050505050905090565b6103de82826103ee565b5050565b6103eb8161055f565b50565b600073ffffffffffffffffffffffffffffffffffffffff168273ffffffffffffffffffffffffffffffffffffffff16141561045e576040517f08c379a000000000000000000000000000000000000000000000000000000000815260040161045590610982565b60405180910390fd5b61046781610608565b156104a7576040517f08c379a000000000000000000000000000000000000000000000000000000000815260040161049e90610922565b60405180910390fd5b6001600360008473ffffffffffffffffffffffffffffffffffffffff1673ffffffffffffffffffffffffffffffffffffffff16815260200190815260200160002060008282546104f79190610a3a565b925050819055508160028260405161050f91906108ce565b908152602001604051809103902060006101000a81548173ffffffffffffffffffffffffffffffffffffffff021916908373ffffffffffffffffffffffffffffffffffffffff1602179055505050565b600061056a82610285565b90506001600360008373ffffffffffffffffffffffffffffffffffffffff1673ffffffffffffffffffffffffffffffffffffffff16815260200190815260200160002060008282546105bc9190610a90565b925050819055506002826040516105d391906108ce565b908152602001604051809103902060006101000a81549073ffffffffffffffffffffffffffffffffffffffff02191690555050565b60008073ffffffffffffffffffffffffffffffffffffffff1660028360405161063191906108ce565b908152602001604051809103902060009054906101000a900473ffffffffffffffffffffffffffffffffffffffff1673ffffffffffffffffffffffffffffffffffffffff1614159050919050565b600061069261068d846109e2565b6109bd565b9050828152602081018484840111156106aa57600080fd5b6106b5848285610b00565b509392505050565b6000813590506106cc81610d33565b92915050565b600082601f8301126106e357600080fd5b81356106f384826020860161067f565b91505092915050565b60006020828403121561070e57600080fd5b600061071c848285016106bd565b91505092915050565b6000806040838503121561073857600080fd5b6000610746858286016106bd565b925050602083013567ffffffffffffffff81111561076357600080fd5b61076f858286016106d2565b9150509250929050565b60006020828403121561078b57600080fd5b600082013567ffffffffffffffff8111156107a557600080fd5b6107b1848285016106d2565b91505092915050565b6107c381610ac4565b82525050565b60006107d482610a13565b6107de8185610a1e565b93506107ee818560208601610b0f565b6107f781610c32565b840191505092915050565b600061080d82610a13565b6108178185610a2f565b9350610827818560208601610b0f565b80840191505092915050565b6000610840601c83610a1e565b915061084b82610c43565b602082019050919050565b6000610863602a83610a1e565b915061086e82610c6c565b604082019050919050565b6000610886602983610a1e565b915061089182610cbb565b604082019050919050565b60006108a9602083610a1e565b91506108b482610d0a565b602082019050919050565b6108c881610af6565b82525050565b60006108da8284610802565b915081905092915050565b60006020820190506108fa60008301846107ba565b92915050565b6000602082019050818103600083015261091a81846107c9565b905092915050565b6000602082019050818103600083015261093b81610833565b9050919050565b6000602082019050818103600083015261095b81610856565b9050919050565b6000602082019050818103600083015261097b81610879565b9050919050565b6000602082019050818103600083015261099b8161089c565b9050919050565b60006020820190506109b760008301846108bf565b92915050565b60006109c76109d8565b90506109d38282610b74565b919050565b6000604051905090565b600067ffffffffffffffff8211156109fd576109fc610c03565b5b610a0682610c32565b9050602081019050919050565b600081519050919050565b600082825260208201905092915050565b600081905092915050565b6000610a4582610af6565b9150610a5083610af6565b9250827fffffffffffffffffffffffffffffffffffffffffffffffffffffffffffffffff03821115610a8557610a84610ba5565b5b828201905092915050565b6000610a9b82610af6565b9150610aa683610af6565b925082821015610ab957610ab8610ba5565b5b828203905092915050565b6000610acf82610ad6565b9050919050565b600073ffffffffffffffffffffffffffffffffffffffff82169050919050565b6000819050919050565b82818337600083830152505050565b60005b83811015610b2d578082015181840152602081019050610b12565b83811115610b3c576000848401525b50505050565b60006002820490506001821680610b5a57607f821691505b60208210811415610b6e57610b6d610bd4565b5b50919050565b610b7d82610c32565b810181811067ffffffffffffffff82111715610b9c57610b9b610c03565b5b80604052505050565b7f4e487b7100000000000000000000000000000000000000000000000000000000600052601160045260246000fd5b7f4e487b7100000000000000000000000000000000000000000000000000000000600052602260045260246000fd5b7f4e487b7100000000000000000000000000000000000000000000000000000000600052604160045260246000fd5b6000601f19601f8301169050919050565b7f4552433732313a20746f6b656e20616c7265616479206d696e74656400000000600082015250565b7f4552433732313a2062616c616e636520717565727920666f7220746865207a6560008201527f726f206164647265737300000000000000000000000000000000000000000000602082015250565b7f4552433732313a206f776e657220717565727920666f72206e6f6e657869737460008201527f656e7420746f6b656e0000000000000000000000000000000000000000000000602082015250565b7f4552433732313a206d696e7420746f20746865207a65726f2061646472657373600082015250565b610d3c81610ac4565b8114610d4757600080fd5b5056fea2646970667358221220e3bc027c40340232443fd7a027b296fdbfa6994f58176f7dc9e168a5c16e697464736f6c63430008010033",
  "immutableReferences": {},
  "source": "// SPDX-License-Identifier: MIT\r\n\r\npragma solidity ^0.8.0;\r\n\r\nimport \"./IAwardsToken.sol\";\r\nimport \"../utils/Address.sol\";\r\nimport \"../utils/Context.sol\";\r\nimport \"../utils/Strings.sol\";\r\n\r\n/**\r\n * @dev Implementation of https://eips.ethereum.org/EIPS/eip-721[ERC721] Non-Fungible Token Standard, including\r\n * the Metadata extension, but not including the Enumerable extension, which is available separately as\r\n * {ERC721Enumerable}.\r\n */\r\ncontract AwardsToken is Context, IAwardsToken {\r\n    using Address for address;\r\n    using Strings for uint256;\r\n\r\n    string private _name = \"Awards\";\r\n    string private _symbol = \"AWT\";\r\n\r\n    // Mapping from token ID to owner address\r\n    mapping (string => address) private _owners;\r\n\r\n    // Mapping owner address to token count\r\n    mapping (address => uint256) private _balances;\r\n\r\n    /**\r\n     * @dev See {IERC721-balanceOf}.\r\n     */\r\n    function balanceOf(address owner) public view virtual override returns (uint256) {\r\n        require(owner != address(0), \"ERC721: balance query for the zero address\");\r\n        return _balances[owner];\r\n    }\r\n\r\n    /**\r\n     * @dev See {IERC721-ownerOf}.\r\n     */\r\n    function ownerOf(string memory tokenId) public view virtual override returns (address) {\r\n        address owner = _owners[tokenId];\r\n        require(owner != address(0), \"ERC721: owner query for nonexistent token\");\r\n        return owner;\r\n    }\r\n\r\n    /**\r\n     * @dev Returns the name of the token.\r\n     */\r\n    function name() public view virtual returns (string memory) {\r\n        return _name;\r\n    }\r\n\r\n    /**\r\n     * @dev Returns the symbol of the token, usually a shorter version of the\r\n     * name.\r\n     */\r\n    function symbol() public view virtual returns (string memory) {\r\n        return _symbol;\r\n    }\r\n\r\n    /**\r\n     * @dev Returns whether `tokenId` exists.\r\n     *\r\n     * Tokens can be managed by their owner or approved accounts via {approve} or {setApprovalForAll}.\r\n     *\r\n     * Tokens start existing when they are minted (`_mint`),\r\n     * and stop existing when they are burned (`_burn`).\r\n     */\r\n    function _exists(string memory tokenId) internal view virtual returns (bool) {\r\n        return _owners[tokenId] != address(0);\r\n    }\r\n\r\n    /**\r\n     * @dev Mints `tokenId` and transfers it to `to`.\r\n     *\r\n     * WARNING: Usage of this method is discouraged, use {_safeMint} whenever possible\r\n     *\r\n     * Requirements:\r\n     *\r\n     * - `tokenId` must not exist.\r\n     * - `to` cannot be the zero address.\r\n     *\r\n     * Emits a {Transfer} event.\r\n     */\r\n    function _mint(address to, string memory tokenId) internal virtual {\r\n        require(to != address(0), \"ERC721: mint to the zero address\");\r\n        require(!_exists(tokenId), \"ERC721: token already minted\");\r\n\r\n        _balances[to] += 1;\r\n        _owners[tokenId] = to;\r\n    }\r\n\r\n    /**\r\n     * @dev Mints `tokenId` and transfers it to `to`.\r\n     *\r\n     */\r\n    function mint(address to, string memory tokenId) public virtual {\r\n        _mint(to, tokenId);\r\n    }\r\n\r\n    /**\r\n     * @dev Destroys `tokenId`.\r\n     * The approval is cleared when the token is burned.\r\n     *\r\n     * Requirements:\r\n     *\r\n     * - `tokenId` must exist.\r\n     *\r\n     * Emits a {Transfer} event.\r\n     */\r\n    function _burn(string memory tokenId) internal virtual {\r\n        address owner = AwardsToken.ownerOf(tokenId);\r\n\r\n        _balances[owner] -= 1;\r\n        delete _owners[tokenId];\r\n    }\r\n\r\n    /**\r\n     * @dev Destroys `tokenId`.\r\n     *\r\n     */\r\n    function burn(string memory tokenId) public virtual {\r\n        _burn(tokenId);\r\n    }\r\n}",
  "sourcePath": "C:\\Users\\carlo\\Desktop\\UCM\\TFG\\popup\\Rewards\\rewards-app\\contracts\\AwardsToken.sol",
  "compiler": {
    "name": "solc",
    "version": "0.8.1+commit.df193b15.Emscripten.clang"
  },
  "schemaVersion": "3.4.0",
  "updatedAt": "2021-05-19T20:17:29.953Z",
  "networkType": "ethereum",
  "devdoc": {
    "details": "Implementation of https://eips.ethereum.org/EIPS/eip-721[ERC721] Non-Fungible Token Standard, including the Metadata extension, but not including the Enumerable extension, which is available separately as {ERC721Enumerable}.",
    "kind": "dev",
    "methods": {
      "balanceOf(address)": {
        "details": "See {IERC721-balanceOf}."
      },
      "burn(string)": {
        "details": "Destroys `tokenId`."
      },
      "mint(address,string)": {
        "details": "Mints `tokenId` and transfers it to `to`."
      },
      "name()": {
        "details": "Returns the name of the token."
      },
      "ownerOf(string)": {
        "details": "See {IERC721-ownerOf}."
      },
      "symbol()": {
        "details": "Returns the symbol of the token, usually a shorter version of the name."
      }
    },
    "version": 1
  },
  "userdoc": {
    "kind": "user",
    "methods": {},
    "version": 1
  }
}