{
  "contractName": "Rewards",
  "abi": [
    {
      "inputs": [
        {
          "internalType": "contract ReputationToken",
          "name": "_reputationToken",
          "type": "address"
        },
        {
          "internalType": "contract AwardsToken",
          "name": "_awardsToken",
          "type": "address"
        }
      ],
      "stateMutability": "nonpayable",
      "type": "constructor"
    },
    {
      "anonymous": false,
      "inputs": [
        {
          "indexed": false,
          "internalType": "uint256",
          "name": "id",
          "type": "uint256"
        },
        {
          "indexed": false,
          "internalType": "address payable",
          "name": "reviewer",
          "type": "address"
        },
        {
          "indexed": false,
          "internalType": "address",
          "name": "user",
          "type": "address"
        },
        {
          "indexed": false,
          "internalType": "uint256",
          "name": "awardId",
          "type": "uint256"
        }
      ],
      "name": "AwardGiven",
      "type": "event"
    },
    {
      "anonymous": false,
      "inputs": [
        {
          "indexed": false,
          "internalType": "uint256",
          "name": "id",
          "type": "uint256"
        },
        {
          "indexed": false,
          "internalType": "string",
          "name": "title",
          "type": "string"
        },
        {
          "indexed": false,
          "internalType": "uint256",
          "name": "tipAmount",
          "type": "uint256"
        },
        {
          "indexed": false,
          "internalType": "address",
          "name": "author",
          "type": "address"
        }
      ],
      "name": "PaperCreated",
      "type": "event"
    },
    {
      "anonymous": false,
      "inputs": [
        {
          "indexed": false,
          "internalType": "uint256",
          "name": "id",
          "type": "uint256"
        },
        {
          "indexed": false,
          "internalType": "address payable",
          "name": "reviewer",
          "type": "address"
        },
        {
          "indexed": false,
          "internalType": "address",
          "name": "user",
          "type": "address"
        }
      ],
      "name": "ReputationGiven",
      "type": "event"
    },
    {
      "anonymous": false,
      "inputs": [
        {
          "indexed": false,
          "internalType": "uint256",
          "name": "id",
          "type": "uint256"
        },
        {
          "indexed": false,
          "internalType": "address payable",
          "name": "reviewer",
          "type": "address"
        },
        {
          "indexed": false,
          "internalType": "address",
          "name": "user",
          "type": "address"
        }
      ],
      "name": "ReputationTaken",
      "type": "event"
    },
    {
      "anonymous": false,
      "inputs": [
        {
          "indexed": false,
          "internalType": "uint256",
          "name": "id",
          "type": "uint256"
        },
        {
          "indexed": false,
          "internalType": "string",
          "name": "title",
          "type": "string"
        },
        {
          "indexed": false,
          "internalType": "address",
          "name": "author",
          "type": "address"
        },
        {
          "indexed": false,
          "internalType": "address payable",
          "name": "reviewer",
          "type": "address"
        }
      ],
      "name": "ReviewerAdded",
      "type": "event"
    },
    {
      "anonymous": false,
      "inputs": [
        {
          "indexed": false,
          "internalType": "uint256",
          "name": "id",
          "type": "uint256"
        },
        {
          "indexed": false,
          "internalType": "string",
          "name": "title",
          "type": "string"
        },
        {
          "indexed": false,
          "internalType": "uint256",
          "name": "tipAmount",
          "type": "uint256"
        },
        {
          "indexed": false,
          "internalType": "address",
          "name": "author",
          "type": "address"
        },
        {
          "indexed": false,
          "internalType": "address payable",
          "name": "reviewer",
          "type": "address"
        }
      ],
      "name": "ReviewerTipped",
      "type": "event"
    },
    {
      "inputs": [],
      "name": "awardsToken",
      "outputs": [
        {
          "internalType": "contract AwardsToken",
          "name": "",
          "type": "address"
        }
      ],
      "stateMutability": "view",
      "type": "function",
      "constant": true
    },
    {
      "inputs": [
        {
          "internalType": "string",
          "name": "",
          "type": "string"
        }
      ],
      "name": "hasGivenAward",
      "outputs": [
        {
          "internalType": "bool",
          "name": "",
          "type": "bool"
        }
      ],
      "stateMutability": "view",
      "type": "function",
      "constant": true
    },
    {
      "inputs": [
        {
          "internalType": "string",
          "name": "",
          "type": "string"
        }
      ],
      "name": "hasGivenReputation",
      "outputs": [
        {
          "internalType": "bool",
          "name": "",
          "type": "bool"
        }
      ],
      "stateMutability": "view",
      "type": "function",
      "constant": true
    },
    {
      "inputs": [
        {
          "internalType": "uint256",
          "name": "",
          "type": "uint256"
        }
      ],
      "name": "papers",
      "outputs": [
        {
          "internalType": "uint256",
          "name": "id",
          "type": "uint256"
        },
        {
          "internalType": "string",
          "name": "title",
          "type": "string"
        },
        {
          "internalType": "uint256",
          "name": "tipAmount",
          "type": "uint256"
        },
        {
          "internalType": "address",
          "name": "author",
          "type": "address"
        }
      ],
      "stateMutability": "view",
      "type": "function",
      "constant": true
    },
    {
      "inputs": [],
      "name": "reputationtoken",
      "outputs": [
        {
          "internalType": "contract ReputationToken",
          "name": "",
          "type": "address"
        }
      ],
      "stateMutability": "view",
      "type": "function",
      "constant": true
    },
    {
      "inputs": [
        {
          "internalType": "address",
          "name": "",
          "type": "address"
        }
      ],
      "name": "reviewerExists",
      "outputs": [
        {
          "internalType": "bool",
          "name": "",
          "type": "bool"
        }
      ],
      "stateMutability": "view",
      "type": "function",
      "constant": true
    },
    {
      "inputs": [
        {
          "internalType": "uint256",
          "name": "",
          "type": "uint256"
        }
      ],
      "name": "reviewers",
      "outputs": [
        {
          "internalType": "address",
          "name": "",
          "type": "address"
        }
      ],
      "stateMutability": "view",
      "type": "function",
      "constant": true
    },
    {
      "inputs": [
        {
          "internalType": "string",
          "name": "_title",
          "type": "string"
        }
      ],
      "name": "createPaper",
      "outputs": [],
      "stateMutability": "nonpayable",
      "type": "function"
    },
    {
      "inputs": [
        {
          "internalType": "uint256",
          "name": "_id",
          "type": "uint256"
        },
        {
          "internalType": "address payable",
          "name": "_reviewer",
          "type": "address"
        },
        {
          "internalType": "string",
          "name": "review",
          "type": "string"
        }
      ],
      "name": "addReviewer",
      "outputs": [],
      "stateMutability": "nonpayable",
      "type": "function"
    },
    {
      "inputs": [
        {
          "internalType": "uint256",
          "name": "_id",
          "type": "uint256"
        },
        {
          "internalType": "address payable",
          "name": "_reviewer",
          "type": "address"
        }
      ],
      "name": "tipReviewer",
      "outputs": [],
      "stateMutability": "payable",
      "type": "function",
      "payable": true
    },
    {
      "inputs": [
        {
          "internalType": "uint256",
          "name": "_id",
          "type": "uint256"
        },
        {
          "internalType": "address payable",
          "name": "_reviewer",
          "type": "address"
        }
      ],
      "name": "giveReputation",
      "outputs": [],
      "stateMutability": "payable",
      "type": "function",
      "payable": true
    },
    {
      "inputs": [
        {
          "internalType": "uint256",
          "name": "_id",
          "type": "uint256"
        },
        {
          "internalType": "address payable",
          "name": "_reviewer",
          "type": "address"
        }
      ],
      "name": "undoGiveReputation",
      "outputs": [],
      "stateMutability": "payable",
      "type": "function",
      "payable": true
    },
    {
      "inputs": [
        {
          "internalType": "address",
          "name": "_reviewer",
          "type": "address"
        }
      ],
      "name": "getReputation",
      "outputs": [
        {
          "internalType": "uint256",
          "name": "",
          "type": "uint256"
        }
      ],
      "stateMutability": "view",
      "type": "function",
      "constant": true
    },
    {
      "inputs": [
        {
          "internalType": "uint256",
          "name": "_id",
          "type": "uint256"
        },
        {
          "internalType": "address payable",
          "name": "_reviewer",
          "type": "address"
        },
        {
          "internalType": "uint256",
          "name": "_awardId",
          "type": "uint256"
        }
      ],
      "name": "giveAward",
      "outputs": [],
      "stateMutability": "payable",
      "type": "function",
      "payable": true
    },
    {
      "inputs": [
        {
          "internalType": "address",
          "name": "_reviewer",
          "type": "address"
        },
        {
          "internalType": "uint256",
          "name": "_id",
          "type": "uint256"
        }
      ],
      "name": "getAward",
      "outputs": [
        {
          "components": [
            {
              "internalType": "uint256",
              "name": "id",
              "type": "uint256"
            },
            {
              "internalType": "address",
              "name": "reviewer",
              "type": "address"
            },
            {
              "internalType": "address",
              "name": "sender",
              "type": "address"
            },
            {
              "internalType": "uint256",
              "name": "awardId",
              "type": "uint256"
            }
          ],
          "internalType": "struct Rewards.Award",
          "name": "",
          "type": "tuple"
        }
      ],
      "stateMutability": "view",
      "type": "function",
      "constant": true
    },
    {
      "inputs": [
        {
          "internalType": "address",
          "name": "_reviewer",
          "type": "address"
        }
      ],
      "name": "getAwardsBalance",
      "outputs": [
        {
          "internalType": "uint256",
          "name": "",
          "type": "uint256"
        }
      ],
      "stateMutability": "view",
      "type": "function",
      "constant": true
    },
    {
      "inputs": [],
      "name": "getReviewers",
      "outputs": [
        {
          "internalType": "address[]",
          "name": "",
          "type": "address[]"
        }
      ],
      "stateMutability": "view",
      "type": "function",
      "constant": true
    },
    {
      "inputs": [
        {
          "internalType": "uint256",
          "name": "_id",
          "type": "uint256"
        }
      ],
      "name": "getPaperReviewers",
      "outputs": [
        {
          "internalType": "address[]",
          "name": "",
          "type": "address[]"
        }
      ],
      "stateMutability": "view",
      "type": "function",
      "constant": true
    },
    {
      "inputs": [
        {
          "internalType": "uint256",
          "name": "_id",
          "type": "uint256"
        },
        {
          "internalType": "address",
          "name": "_reviewer",
          "type": "address"
        }
      ],
      "name": "getPaperReviewsByReviewer",
      "outputs": [
        {
          "internalType": "string",
          "name": "",
          "type": "string"
        }
      ],
      "stateMutability": "view",
      "type": "function",
      "constant": true
    },
    {
      "inputs": [],
      "name": "getPaperCount",
      "outputs": [
        {
          "internalType": "uint256",
          "name": "",
          "type": "uint256"
        }
      ],
      "stateMutability": "view",
      "type": "function",
      "constant": true
    },
    {
      "inputs": [
        {
          "internalType": "uint256",
          "name": "_id",
          "type": "uint256"
        }
      ],
      "name": "getPaperReviewerCount",
      "outputs": [
        {
          "internalType": "uint256",
          "name": "",
          "type": "uint256"
        }
      ],
      "stateMutability": "view",
      "type": "function",
      "constant": true
    },
    {
      "inputs": [],
      "name": "getReviewersCount",
      "outputs": [
        {
          "internalType": "uint256",
          "name": "",
          "type": "uint256"
        }
      ],
      "stateMutability": "view",
      "type": "function",
      "constant": true
    }
  ],
  "bytecode": "0x60806040523480156200001157600080fd5b5060405162002998380380620029988339818101604052810190620000379190620000ef565b81600260006101000a81548173ffffffffffffffffffffffffffffffffffffffff021916908373ffffffffffffffffffffffffffffffffffffffff16021790555080600360006101000a81548173ffffffffffffffffffffffffffffffffffffffff021916908373ffffffffffffffffffffffffffffffffffffffff1602179055505050620001c0565b600081519050620000d2816200018c565b92915050565b600081519050620000e981620001a6565b92915050565b600080604083850312156200010357600080fd5b60006200011385828601620000d8565b92505060206200012685828601620000c1565b9150509250929050565b60006200013d826200016c565b9050919050565b6000620001518262000130565b9050919050565b6000620001658262000130565b9050919050565b600073ffffffffffffffffffffffffffffffffffffffff82169050919050565b620001978162000144565b8114620001a357600080fd5b50565b620001b18162000158565b8114620001bd57600080fd5b50565b6127c880620001d06000396000f3fe6080604052600436106101355760003560e01c806375a87643116100ab5780639c89a0e21161006f5780639c89a0e21461045d5780639cc616f61461049a578063cc87c91e146104d7578063dda7247b146104f3578063df4d69341461051c578063ef5ddf781461055957610135565b806375a87643146103765780638217a3be146103a15780638c9b5e63146103cc5780638e881498146103f757806390a10f741461043457610135565b8063316ed42e116100fd578063316ed42e146102295780633d7e97f2146102665780633f2f3e57146102915780635c34e898146102ce5780635e775a27146102f957806361a5d6a81461033957610135565b806305a378a21461013a5780631789064f14610156578063249fd94b1461017257806327167bd5146101af578063305dd39d146101ec575b600080fd5b610154600480360381019061014f9190611e55565b610575565b005b610170600480360381019061016b9190611d4f565b6107e0565b005b34801561017e57600080fd5b5061019960048036038101906101949190611c1b565b610992565b6040516101a6919061222a565b60405180910390f35b3480156101bb57600080fd5b506101d660048036038101906101d19190611c1b565b610a46565b6040516101e3919061219c565b60405180910390f35b3480156101f857600080fd5b50610213600480360381019061020e9190611cc1565b610a66565b604051610220919061217a565b60405180910390f35b34801561023557600080fd5b50610250600480360381019061024b9190611cc1565b610b50565b60405161025d919061222a565b60405180910390f35b34801561027257600080fd5b5061027b610bb9565b604051610288919061222a565b60405180910390f35b34801561029d57600080fd5b506102b860048036038101906102b39190611c44565b610bc6565b6040516102c5919061220f565b60405180910390f35b3480156102da57600080fd5b506102e3610d85565b6040516102f091906121d2565b60405180910390f35b34801561030557600080fd5b50610320600480360381019061031b9190611cc1565b610dab565b604051610330949392919061230d565b60405180910390f35b34801561034557600080fd5b50610360600480360381019061035b9190611c80565b610e93565b60405161036d919061219c565b60405180910390f35b34801561038257600080fd5b5061038b610ec9565b604051610398919061217a565b60405180910390f35b3480156103ad57600080fd5b506103b6610f57565b6040516103c3919061222a565b60405180910390f35b3480156103d857600080fd5b506103e1610f64565b6040516103ee91906121b7565b60405180910390f35b34801561040357600080fd5b5061041e60048036038101906104199190611c80565b610f8a565b60405161042b919061219c565b60405180910390f35b34801561044057600080fd5b5061045b60048036038101906104569190611c80565b610fc0565b005b34801561046957600080fd5b50610484600480360381019061047f9190611c1b565b6110a2565b604051610491919061222a565b60405180910390f35b3480156104a657600080fd5b506104c160048036038101906104bc9190611cc1565b611156565b6040516104ce9190612106565b60405180910390f35b6104f160048036038101906104ec9190611d4f565b611195565b005b3480156104ff57600080fd5b5061051a60048036038101906105159190611dee565b611309565b005b34801561052857600080fd5b50610543600480360381019061053e9190611d13565b61170b565b60405161055091906121ed565b60405180910390f35b610573600480360381019061056e9190611d4f565b61183b565b005b600480549050831061058657600080fd5b6004811061059357600080fd5b6000600484815481106105cf577f4e487b7100000000000000000000000000000000000000000000000000000000600052603260045260246000fd5b906000526020600020906006020160050160008473ffffffffffffffffffffffffffffffffffffffff1673ffffffffffffffffffffffffffffffffffffffff16815260200190815260200160002080546106289061264c565b9050141561063557600080fd5b60008383338460405160200161064e949392919061227c565b604051602081830303815290604052905060018160405161066f91906120ef565b908152602001604051809103902060009054906101000a900460ff161561069557600080fd5b600360009054906101000a900473ffffffffffffffffffffffffffffffffffffffff1673ffffffffffffffffffffffffffffffffffffffff1663d0def52184836040518363ffffffff1660e01b81526004016106f2929190612121565b600060405180830381600087803b15801561070c57600080fd5b505af1158015610720573d6000803e3d6000fd5b50505050600760008473ffffffffffffffffffffffffffffffffffffffff1673ffffffffffffffffffffffffffffffffffffffff1681526020019081526020016000208190806001815401808255809150506001900390600052602060002001600090919091909150908051906020019061079c929190611a53565b507f07128538c880e3e0420db7ffeeed2ec2c8c21674d9ff7401f55a25be56e46bae848433856040516107d2949392919061227c565b60405180910390a150505050565b60048054905082106107f157600080fd5b346004838154811061082c577f4e487b7100000000000000000000000000000000000000000000000000000000600052603260045260246000fd5b9060005260206000209060060201600201600082825461084c91906124ca565b925050819055508073ffffffffffffffffffffffffffffffffffffffff166108fc349081150290604051600060405180830381858888f19350505050158015610899573d6000803e3d6000fd5b507f53f38d23892c8f39da949a3f0104a3792f839931ef190898ad7535f1109b39bb82600484815481106108f6577f4e487b7100000000000000000000000000000000000000000000000000000000600052603260045260246000fd5b90600052602060002090600602016001013460048681548110610942577f4e487b7100000000000000000000000000000000000000000000000000000000600052603260045260246000fd5b906000526020600020906006020160030160009054906101000a900473ffffffffffffffffffffffffffffffffffffffff16856040516109869594939291906123a5565b60405180910390a15050565b6000600360009054906101000a900473ffffffffffffffffffffffffffffffffffffffff1673ffffffffffffffffffffffffffffffffffffffff166370a08231836040518263ffffffff1660e01b81526004016109ef9190612106565b60206040518083038186803b158015610a0757600080fd5b505afa158015610a1b573d6000803e3d6000fd5b505050506040513d601f19601f82011682018060405250810190610a3f9190611cea565b9050919050565b60056020528060005260406000206000915054906101000a900460ff1681565b60606004805490508210610a7957600080fd5b60048281548110610ab3577f4e487b7100000000000000000000000000000000000000000000000000000000600052603260045260246000fd5b9060005260206000209060060201600401805480602002602001604051908101604052809291908181526020018280548015610b4457602002820191906000526020600020905b8160009054906101000a900473ffffffffffffffffffffffffffffffffffffffff1673ffffffffffffffffffffffffffffffffffffffff1681526020019060010190808311610afa575b50505050509050919050565b60006004805490508210610b6357600080fd5b60048281548110610b9d577f4e487b7100000000000000000000000000000000000000000000000000000000600052603260045260246000fd5b9060005260206000209060060201600401805490509050919050565b6000600480549050905090565b610bce611ad9565b6000600760008573ffffffffffffffffffffffffffffffffffffffff1673ffffffffffffffffffffffffffffffffffffffff16815260200190815260200160002090506000818481548110610c4c577f4e487b7100000000000000000000000000000000000000000000000000000000600052603260045260246000fd5b906000526020600020018054610c619061264c565b80601f0160208091040260200160405190810160405280929190818152602001828054610c8d9061264c565b8015610cda5780601f10610caf57610100808354040283529160200191610cda565b820191906000526020600020905b815481529060010190602001808311610cbd57829003601f168201915b50505050509050610ce9611ad9565b81806020019051810190610cfd9190611d8b565b84600001856020018660400187606001848152508473ffffffffffffffffffffffffffffffffffffffff1673ffffffffffffffffffffffffffffffffffffffff168152508473ffffffffffffffffffffffffffffffffffffffff1673ffffffffffffffffffffffffffffffffffffffff16815250848152505050505080935050505092915050565b600260009054906101000a900473ffffffffffffffffffffffffffffffffffffffff1681565b60048181548110610dbb57600080fd5b9060005260206000209060060201600091509050806000015490806001018054610de49061264c565b80601f0160208091040260200160405190810160405280929190818152602001828054610e109061264c565b8015610e5d5780601f10610e3257610100808354040283529160200191610e5d565b820191906000526020600020905b815481529060010190602001808311610e4057829003601f168201915b5050505050908060020154908060030160009054906101000a900473ffffffffffffffffffffffffffffffffffffffff16905084565b6000818051602081018201805184825260208301602085012081835280955050505050506000915054906101000a900460ff1681565b60606006805480602002602001604051908101604052809291908181526020018280548015610f4d57602002820191906000526020600020905b8160009054906101000a900473ffffffffffffffffffffffffffffffffffffffff1673ffffffffffffffffffffffffffffffffffffffff1681526020019060010190808311610f03575b5050505050905090565b6000600680549050905090565b600360009054906101000a900473ffffffffffffffffffffffffffffffffffffffff1681565b6001818051602081018201805184825260208301602085012081835280955050505050506000915054906101000a900460ff1681565b6000815111610fce57600080fd5b600060046001816001815401808255809150500390600052602060002090600602019050600480549050816000018190555081816001019080519060200190611018929190611a53565b50338160030160006101000a81548173ffffffffffffffffffffffffffffffffffffffff021916908373ffffffffffffffffffffffffffffffffffffffff1602179055507f75dbed2f4b10560e83c412e477ae7d3cc865ad4b331fd9d3bedb9d1caf36b14981600001548360003360405161109694939291906122c1565b60405180910390a15050565b6000600260009054906101000a900473ffffffffffffffffffffffffffffffffffffffff1673ffffffffffffffffffffffffffffffffffffffff166370a08231836040518263ffffffff1660e01b81526004016110ff9190612106565b60206040518083038186803b15801561111757600080fd5b505afa15801561112b573d6000803e3d6000fd5b505050506040513d601f19601f8201168201806040525081019061114f9190611cea565b9050919050565b6006818154811061116657600080fd5b906000526020600020016000915054906101000a900473ffffffffffffffffffffffffffffffffffffffff1681565b60048054905082106111a657600080fd5b60008282336040516020016111bd93929190612245565b60405160208183030381529060405290506000816040516111de91906120ef565b908152602001604051809103902060009054906101000a900460ff1661120357600080fd5b6000808260405161121491906120ef565b908152602001604051809103902060006101000a81548160ff021916908315150217905550600260009054906101000a900473ffffffffffffffffffffffffffffffffffffffff1673ffffffffffffffffffffffffffffffffffffffff16639dc29fac8360016040518363ffffffff1660e01b8152600401611297929190612151565b600060405180830381600087803b1580156112b157600080fd5b505af11580156112c5573d6000803e3d6000fd5b505050507f0c66462458ff8502ad0c2b7b30cbaf36c2f45a0c352050ec68a1380d4b623ac68383336040516112fc93929190612245565b60405180910390a1505050565b600480549050831061131a57600080fd5b60048381548110611354577f4e487b7100000000000000000000000000000000000000000000000000000000600052603260045260246000fd5b906000526020600020906006020160030160009054906101000a900473ffffffffffffffffffffffffffffffffffffffff1673ffffffffffffffffffffffffffffffffffffffff168273ffffffffffffffffffffffffffffffffffffffff1614156113be57600080fd5b600483815481106113f8577f4e487b7100000000000000000000000000000000000000000000000000000000600052603260045260246000fd5b9060005260206000209060060201600401829080600181540180825580915050600190039060005260206000200160009091909190916101000a81548173ffffffffffffffffffffffffffffffffffffffff021916908373ffffffffffffffffffffffffffffffffffffffff16021790555080600484815481106114a5577f4e487b7100000000000000000000000000000000000000000000000000000000600052603260045260246000fd5b906000526020600020906006020160050160008473ffffffffffffffffffffffffffffffffffffffff1673ffffffffffffffffffffffffffffffffffffffff1681526020019081526020016000209080519060200190611506929190611a53565b50600560008373ffffffffffffffffffffffffffffffffffffffff1673ffffffffffffffffffffffffffffffffffffffff16815260200190815260200160002060009054906101000a900460ff16611614576001600560008473ffffffffffffffffffffffffffffffffffffffff1673ffffffffffffffffffffffffffffffffffffffff16815260200190815260200160002060006101000a81548160ff0219169083151502179055506006829080600181540180825580915050600190039060005260206000200160009091909190916101000a81548173ffffffffffffffffffffffffffffffffffffffff021916908373ffffffffffffffffffffffffffffffffffffffff1602179055505b7fda9d9532306ca391b9faab97df298b4a4ab517627ee3457239579de84f5acbd68360048581548110611670577f4e487b7100000000000000000000000000000000000000000000000000000000600052603260045260246000fd5b9060005260206000209060060201600101600486815481106116bb577f4e487b7100000000000000000000000000000000000000000000000000000000600052603260045260246000fd5b906000526020600020906006020160030160009054906101000a900473ffffffffffffffffffffffffffffffffffffffff16856040516116fe9493929190612359565b60405180910390a1505050565b6060600061171884610b50565b1161172257600080fd5b6004838154811061175c577f4e487b7100000000000000000000000000000000000000000000000000000000600052603260045260246000fd5b906000526020600020906006020160050160008373ffffffffffffffffffffffffffffffffffffffff1673ffffffffffffffffffffffffffffffffffffffff16815260200190815260200160002080546117b59061264c565b80601f01602080910402602001604051908101604052809291908181526020018280546117e19061264c565b801561182e5780601f106118035761010080835404028352916020019161182e565b820191906000526020600020905b81548152906001019060200180831161181157829003601f168201915b5050505050905092915050565b600480549050821061184c57600080fd5b600060048381548110611888577f4e487b7100000000000000000000000000000000000000000000000000000000600052603260045260246000fd5b906000526020600020906006020160050160008373ffffffffffffffffffffffffffffffffffffffff1673ffffffffffffffffffffffffffffffffffffffff16815260200190815260200160002080546118e19061264c565b905014156118ee57600080fd5b600082823360405160200161190593929190612245565b604051602081830303815290604052905060008160405161192691906120ef565b908152602001604051809103902060009054906101000a900460ff161561194c57600080fd5b600160008260405161195e91906120ef565b908152602001604051809103902060006101000a81548160ff021916908315150217905550600260009054906101000a900473ffffffffffffffffffffffffffffffffffffffff1673ffffffffffffffffffffffffffffffffffffffff166340c10f198360016040518363ffffffff1660e01b81526004016119e1929190612151565b600060405180830381600087803b1580156119fb57600080fd5b505af1158015611a0f573d6000803e3d6000fd5b505050507fb0e2fdeb939f7c4bd17f4b82804b0a050950d5ccaaf3aa22206ea5b80bcdb914838333604051611a4693929190612245565b60405180910390a1505050565b828054611a5f9061264c565b90600052602060002090601f016020900481019282611a815760008555611ac8565b82601f10611a9a57805160ff1916838001178555611ac8565b82800160010185558215611ac8579182015b82811115611ac7578251825591602001919060010190611aac565b5b509050611ad59190611b2d565b5090565b604051806080016040528060008152602001600073ffffffffffffffffffffffffffffffffffffffff168152602001600073ffffffffffffffffffffffffffffffffffffffff168152602001600081525090565b5b80821115611b46576000816000905550600101611b2e565b5090565b6000611b5d611b5884612424565b6123ff565b905082815260208101848484011115611b7557600080fd5b611b8084828561260a565b509392505050565b600081359050611b978161274d565b92915050565b600081359050611bac81612764565b92915050565b600081519050611bc181612764565b92915050565b600082601f830112611bd857600080fd5b8135611be8848260208601611b4a565b91505092915050565b600081359050611c008161277b565b92915050565b600081519050611c158161277b565b92915050565b600060208284031215611c2d57600080fd5b6000611c3b84828501611b88565b91505092915050565b60008060408385031215611c5757600080fd5b6000611c6585828601611b88565b9250506020611c7685828601611bf1565b9150509250929050565b600060208284031215611c9257600080fd5b600082013567ffffffffffffffff811115611cac57600080fd5b611cb884828501611bc7565b91505092915050565b600060208284031215611cd357600080fd5b6000611ce184828501611bf1565b91505092915050565b600060208284031215611cfc57600080fd5b6000611d0a84828501611c06565b91505092915050565b60008060408385031215611d2657600080fd5b6000611d3485828601611bf1565b9250506020611d4585828601611b88565b9150509250929050565b60008060408385031215611d6257600080fd5b6000611d7085828601611bf1565b9250506020611d8185828601611b9d565b9150509250929050565b60008060008060808587031215611da157600080fd5b6000611daf87828801611c06565b9450506020611dc087828801611bb2565b9350506040611dd187828801611bb2565b9250506060611de287828801611c06565b91505092959194509250565b600080600060608486031215611e0357600080fd5b6000611e1186828701611bf1565b9350506020611e2286828701611b9d565b925050604084013567ffffffffffffffff811115611e3f57600080fd5b611e4b86828701611bc7565b9150509250925092565b600080600060608486031215611e6a57600080fd5b6000611e7886828701611bf1565b9350506020611e8986828701611b9d565b9250506040611e9a86828701611bf1565b9150509250925092565b6000611eb08383611eda565b60208301905092915050565b611ec58161257a565b82525050565b611ed481612532565b82525050565b611ee381612520565b82525050565b611ef281612520565b82525050565b6000611f038261247a565b611f0d818561249d565b9350611f1883612455565b8060005b83811015611f49578151611f308882611ea4565b9750611f3b83612490565b925050600181019050611f1c565b5085935050505092915050565b611f5f81612544565b82525050565b611f6e8161258c565b82525050565b611f7d816125b0565b82525050565b611f8c816125d4565b82525050565b6000611f9d82612485565b611fa781856124ae565b9350611fb7818560208601612619565b611fc08161273c565b840191505092915050565b6000611fd682612485565b611fe081856124bf565b9350611ff0818560208601612619565b80840191505092915050565b600081546120098161264c565b61201381866124ae565b9450600182166000811461202e576001811461204057612073565b60ff1983168652602086019350612073565b61204985612465565b60005b8381101561206b5781548189015260018201915060208101905061204c565b808801955050505b50505092915050565b60808201600082015161209260008501826120d1565b5060208201516120a56020850182611eda565b5060408201516120b86040850182611eda565b5060608201516120cb60608501826120d1565b50505050565b6120da81612570565b82525050565b6120e981612570565b82525050565b60006120fb8284611fcb565b915081905092915050565b600060208201905061211b6000830184611ee9565b92915050565b60006040820190506121366000830185611ebc565b81810360208301526121488184611f92565b90509392505050565b60006040820190506121666000830185611ebc565b61217360208301846120e0565b9392505050565b600060208201905081810360008301526121948184611ef8565b905092915050565b60006020820190506121b16000830184611f56565b92915050565b60006020820190506121cc6000830184611f65565b92915050565b60006020820190506121e76000830184611f74565b92915050565b600060208201905081810360008301526122078184611f92565b905092915050565b6000608082019050612224600083018461207c565b92915050565b600060208201905061223f60008301846120e0565b92915050565b600060608201905061225a60008301866120e0565b6122676020830185611ecb565b6122746040830184611ee9565b949350505050565b600060808201905061229160008301876120e0565b61229e6020830186611ecb565b6122ab6040830185611ee9565b6122b860608301846120e0565b95945050505050565b60006080820190506122d660008301876120e0565b81810360208301526122e88186611f92565b90506122f76040830185611f83565b6123046060830184611ee9565b95945050505050565b600060808201905061232260008301876120e0565b81810360208301526123348186611f92565b905061234360408301856120e0565b6123506060830184611ee9565b95945050505050565b600060808201905061236e60008301876120e0565b81810360208301526123808186611ffc565b905061238f6040830185611ee9565b61239c6060830184611ecb565b95945050505050565b600060a0820190506123ba60008301886120e0565b81810360208301526123cc8187611ffc565b90506123db60408301866120e0565b6123e86060830185611ee9565b6123f56080830184611ecb565b9695505050505050565b600061240961241a565b9050612415828261267e565b919050565b6000604051905090565b600067ffffffffffffffff82111561243f5761243e61270d565b5b6124488261273c565b9050602081019050919050565b6000819050602082019050919050565b60008190508160005260206000209050919050565b600081519050919050565b600081519050919050565b6000602082019050919050565b600082825260208201905092915050565b600082825260208201905092915050565b600081905092915050565b60006124d582612570565b91506124e083612570565b9250827fffffffffffffffffffffffffffffffffffffffffffffffffffffffffffffffff03821115612515576125146126af565b5b828201905092915050565b600061252b82612550565b9050919050565b600061253d82612550565b9050919050565b60008115159050919050565b600073ffffffffffffffffffffffffffffffffffffffff82169050919050565b6000819050919050565b6000612585826125e6565b9050919050565b60006125978261259e565b9050919050565b60006125a982612550565b9050919050565b60006125bb826125c2565b9050919050565b60006125cd82612550565b9050919050565b60006125df82612570565b9050919050565b60006125f1826125f8565b9050919050565b600061260382612550565b9050919050565b82818337600083830152505050565b60005b8381101561263757808201518184015260208101905061261c565b83811115612646576000848401525b50505050565b6000600282049050600182168061266457607f821691505b60208210811415612678576126776126de565b5b50919050565b6126878261273c565b810181811067ffffffffffffffff821117156126a6576126a561270d565b5b80604052505050565b7f4e487b7100000000000000000000000000000000000000000000000000000000600052601160045260246000fd5b7f4e487b7100000000000000000000000000000000000000000000000000000000600052602260045260246000fd5b7f4e487b7100000000000000000000000000000000000000000000000000000000600052604160045260246000fd5b6000601f19601f8301169050919050565b61275681612520565b811461276157600080fd5b50565b61276d81612532565b811461277857600080fd5b50565b61278481612570565b811461278f57600080fd5b5056fea26469706673582212205c37170bdda34be10827d7880b822aca201715a877cfbcd991a343f96a0eab8d64736f6c63430008010033",
  "immutableReferences": {},
  "source": "pragma solidity ^0.8.0;\r\n\r\nimport \"./ReputationToken.sol\";\r\nimport \"./AwardsToken.sol\";\r\n\r\nuint constant REPUTATION = 1;\r\n\r\ncontract Rewards {\r\n    mapping(string => bool) public hasGivenReputation;\r\n    mapping(string => bool) public hasGivenAward;\r\n    ReputationToken public reputationtoken;\r\n    AwardsToken public awardsToken;\r\n\r\n    constructor(ReputationToken _reputationToken, AwardsToken _awardsToken) {\r\n        reputationtoken = _reputationToken;\r\n        awardsToken = _awardsToken;\r\n    }\r\n\r\n    struct Award {\r\n        uint id;\r\n        address reviewer;\r\n        address sender;\r\n        uint awardId;\r\n    }\r\n\r\n    struct Paper {\r\n        uint id;\r\n        string title;\r\n        uint tipAmount;\r\n        address author;\r\n        address[] reviewers;\r\n        mapping(address => string) reviews; //TODO update to array of strings\r\n    }\r\n\r\n    Paper[] public papers;\r\n    mapping(address => bool) public reviewerExists;\r\n    address[] public reviewers;\r\n    mapping(address => string []) awards;\r\n\r\n    event PaperCreated(\r\n        uint id,\r\n        string title,\r\n        uint tipAmount,\r\n        address author\r\n    );\r\n\r\n    event ReviewerAdded(\r\n        uint id,\r\n        string title,\r\n        address author,\r\n        address payable reviewer\r\n    );\r\n\r\n    event ReviewerTipped(\r\n        uint id,\r\n        string title,\r\n        uint tipAmount,\r\n        address author,\r\n        address payable reviewer\r\n    );\r\n\r\n    event ReputationGiven(\r\n        uint id,\r\n        address payable reviewer,\r\n        address user\r\n    );\r\n\r\n    event ReputationTaken(\r\n        uint id,\r\n        address payable reviewer,\r\n        address user\r\n    );\r\n\r\n    event AwardGiven(\r\n        uint id,\r\n        address payable reviewer,\r\n        address user,\r\n        uint awardId\r\n    );\r\n\r\n    function createPaper(string memory _title) public {\r\n        require(bytes(_title).length > 0);\r\n        Paper storage paper = papers.push();\r\n        paper.id = papers.length;\r\n        paper.title = _title;\r\n        paper.author = msg.sender;\r\n        emit PaperCreated(paper.id, _title, 0, msg.sender);\r\n    }\r\n\r\n    function addReviewer(uint _id, address payable _reviewer, string memory review) public {\r\n        require(_id < papers.length);\r\n        require(_reviewer != papers[_id].author);\r\n        papers[_id].reviewers.push(_reviewer);\r\n        papers[_id].reviews[_reviewer] = review;\r\n        \r\n        if(!reviewerExists[_reviewer]){\r\n            reviewerExists[_reviewer] = true;\r\n            reviewers.push(_reviewer);\r\n        }\r\n\r\n        emit ReviewerAdded(_id, papers[_id].title, papers[_id].author, _reviewer);\r\n    }\r\n\r\n    function tipReviewer(uint _id, address payable _reviewer) public payable{\r\n        require(_id < papers.length);\r\n\r\n        papers[_id].tipAmount += msg.value;\r\n        _reviewer.transfer(msg.value);\r\n\r\n        emit ReviewerTipped(_id, papers[_id].title, msg.value, papers[_id].author, _reviewer);\r\n    }\r\n\r\n    function giveReputation(uint _id, address payable _reviewer) public payable{\r\n        require(_id < papers.length);\r\n        require(bytes(papers[_id].reviews[_reviewer]).length != 0);\r\n        string memory _hash = string(abi.encode(_id, _reviewer, msg.sender));\r\n        require(!hasGivenReputation[_hash]);\r\n        hasGivenReputation[_hash] = true;\r\n        reputationtoken.mint(_reviewer, REPUTATION);\r\n\r\n        emit ReputationGiven(_id,  _reviewer, msg.sender);\r\n    }\r\n\r\n    function undoGiveReputation(uint _id, address payable _reviewer) public payable{\r\n        require(_id < papers.length);\r\n        string memory _hash = string(abi.encode(_id, _reviewer, msg.sender));\r\n        require(hasGivenReputation[_hash]);\r\n        hasGivenReputation[_hash] = false;\r\n        reputationtoken.burn(_reviewer, REPUTATION);\r\n\r\n        emit ReputationTaken(_id,  _reviewer, msg.sender);\r\n    }\r\n\r\n    function getReputation(address _reviewer) public view returns (uint256) {\r\n        return reputationtoken.balanceOf(_reviewer);\r\n    }\r\n\r\n    function giveAward(uint _id, address payable _reviewer, uint _awardId ) public payable{\r\n        require(_id < papers.length);\r\n        require(_awardId < 4);\r\n        require(bytes(papers[_id].reviews[_reviewer]).length != 0);\r\n        string memory _hash = string(abi.encode(_id, _reviewer, msg.sender, _awardId));\r\n        require(!hasGivenAward[_hash]);\r\n        awardsToken.mint(_reviewer, _hash);\r\n        awards[_reviewer].push(_hash);\r\n\r\n        emit AwardGiven(_id,  _reviewer, msg.sender, _awardId);\r\n    }\r\n\r\n    function getAward(address _reviewer, uint _id) public view returns (Award memory){\r\n        string [] storage hashes = awards[_reviewer];\r\n        string memory _hash = hashes[_id];\r\n        Award memory a;\r\n        (a.id, a.reviewer, a.sender, a.awardId) = (abi.decode(bytes(_hash), (uint , address, address, uint)));\r\n        return a;\r\n    }\r\n\r\n    function getAwardsBalance(address _reviewer) public view returns (uint){\r\n        return awardsToken.balanceOf(_reviewer);\r\n    }\r\n\r\n    function getReviewers() public view returns (address [] memory){\r\n        return reviewers;\r\n    }\r\n\r\n    function getPaperReviewers(uint _id) public view returns (address [] memory){\r\n        require(_id < papers.length);\r\n        return papers[_id].reviewers;\r\n    }\r\n\r\n    function getPaperReviewsByReviewer(uint _id, address _reviewer) public view returns (string memory){\r\n        require(getPaperReviewerCount(_id) > 0);\r\n        return papers[_id].reviews[_reviewer];\r\n    }\r\n\r\n    function getPaperCount() public view returns (uint256) {\r\n        return papers.length;\r\n    }\r\n\r\n    function getPaperReviewerCount(uint _id) public view returns (uint256) {\r\n        require(_id < papers.length);\r\n        return papers[_id].reviewers.length;\r\n    }\r\n\r\n    function getReviewersCount() public view returns (uint256){\r\n        return reviewers.length;\r\n    }\r\n}",
  "sourcePath": "C:/Users/carlo/Desktop/UCM/TFG/FrontEnd-TFG/contracts/Rewards.sol",
  "compiler": {
    "name": "solc",
    "version": "0.8.1+commit.df193b15.Emscripten.clang"
  },
  "schemaVersion": "3.4.0",
  "updatedAt": "2021-05-02T12:49:37.386Z",
  "networkType": "ethereum",
  "devdoc": {
    "kind": "dev",
    "methods": {},
    "version": 1
  },
  "userdoc": {
    "kind": "user",
    "methods": {},
    "version": 1
  }
}