{
  "contractName": "Rewards",
  "abi": [
    {
      "inputs": [
        {
          "internalType": "contract ReputationToken",
          "name": "_reputationToken",
          "type": "address"
        },
        {
          "internalType": "contract AwardsToken",
          "name": "_awardsToken",
          "type": "address"
        }
      ],
      "stateMutability": "nonpayable",
      "type": "constructor"
    },
    {
      "anonymous": false,
      "inputs": [
        {
          "indexed": false,
          "internalType": "uint256",
          "name": "id",
          "type": "uint256"
        },
        {
          "indexed": false,
          "internalType": "address payable",
          "name": "reviewer",
          "type": "address"
        },
        {
          "indexed": false,
          "internalType": "address",
          "name": "user",
          "type": "address"
        },
        {
          "indexed": false,
          "internalType": "uint256",
          "name": "awardId",
          "type": "uint256"
        },
        {
          "indexed": false,
          "internalType": "string",
          "name": "hashIPFS",
          "type": "string"
        },
        {
          "indexed": false,
          "internalType": "string",
          "name": "reviewId",
          "type": "string"
        }
      ],
      "name": "AwardGiven",
      "type": "event"
    },
    {
      "anonymous": false,
      "inputs": [
        {
          "indexed": false,
          "internalType": "uint256",
          "name": "id",
          "type": "uint256"
        },
        {
          "indexed": false,
          "internalType": "string",
          "name": "title",
          "type": "string"
        },
        {
          "indexed": false,
          "internalType": "uint256",
          "name": "tipAmount",
          "type": "uint256"
        },
        {
          "indexed": false,
          "internalType": "address",
          "name": "author",
          "type": "address"
        }
      ],
      "name": "PaperCreated",
      "type": "event"
    },
    {
      "anonymous": false,
      "inputs": [
        {
          "indexed": false,
          "internalType": "uint256",
          "name": "id",
          "type": "uint256"
        },
        {
          "indexed": false,
          "internalType": "address payable",
          "name": "reviewer",
          "type": "address"
        },
        {
          "indexed": false,
          "internalType": "address",
          "name": "user",
          "type": "address"
        }
      ],
      "name": "ReputationGiven",
      "type": "event"
    },
    {
      "anonymous": false,
      "inputs": [
        {
          "indexed": false,
          "internalType": "uint256",
          "name": "id",
          "type": "uint256"
        },
        {
          "indexed": false,
          "internalType": "address payable",
          "name": "reviewer",
          "type": "address"
        },
        {
          "indexed": false,
          "internalType": "address",
          "name": "user",
          "type": "address"
        }
      ],
      "name": "ReputationTaken",
      "type": "event"
    },
    {
      "anonymous": false,
      "inputs": [
        {
          "indexed": false,
          "internalType": "uint256",
          "name": "id",
          "type": "uint256"
        },
        {
          "indexed": false,
          "internalType": "string",
          "name": "title",
          "type": "string"
        },
        {
          "indexed": false,
          "internalType": "address",
          "name": "author",
          "type": "address"
        },
        {
          "indexed": false,
          "internalType": "address payable",
          "name": "reviewer",
          "type": "address"
        }
      ],
      "name": "ReviewerAdded",
      "type": "event"
    },
    {
      "anonymous": false,
      "inputs": [
        {
          "indexed": false,
          "internalType": "uint256",
          "name": "id",
          "type": "uint256"
        },
        {
          "indexed": false,
          "internalType": "string",
          "name": "title",
          "type": "string"
        },
        {
          "indexed": false,
          "internalType": "uint256",
          "name": "tipAmount",
          "type": "uint256"
        },
        {
          "indexed": false,
          "internalType": "address",
          "name": "author",
          "type": "address"
        },
        {
          "indexed": false,
          "internalType": "address payable",
          "name": "reviewer",
          "type": "address"
        }
      ],
      "name": "ReviewerTipped",
      "type": "event"
    },
    {
      "inputs": [],
      "name": "awardsToken",
      "outputs": [
        {
          "internalType": "contract AwardsToken",
          "name": "",
          "type": "address"
        }
      ],
      "stateMutability": "view",
      "type": "function",
      "constant": true
    },
    {
      "inputs": [
        {
          "internalType": "string",
          "name": "",
          "type": "string"
        }
      ],
      "name": "hasGivenAward",
      "outputs": [
        {
          "internalType": "bool",
          "name": "",
          "type": "bool"
        }
      ],
      "stateMutability": "view",
      "type": "function",
      "constant": true
    },
    {
      "inputs": [
        {
          "internalType": "string",
          "name": "",
          "type": "string"
        }
      ],
      "name": "hasGivenReputation",
      "outputs": [
        {
          "internalType": "bool",
          "name": "",
          "type": "bool"
        }
      ],
      "stateMutability": "view",
      "type": "function",
      "constant": true
    },
    {
      "inputs": [
        {
          "internalType": "uint256",
          "name": "",
          "type": "uint256"
        }
      ],
      "name": "papers",
      "outputs": [
        {
          "internalType": "uint256",
          "name": "id",
          "type": "uint256"
        },
        {
          "internalType": "string",
          "name": "title",
          "type": "string"
        },
        {
          "internalType": "uint256",
          "name": "tipAmount",
          "type": "uint256"
        },
        {
          "internalType": "address",
          "name": "author",
          "type": "address"
        }
      ],
      "stateMutability": "view",
      "type": "function",
      "constant": true
    },
    {
      "inputs": [],
      "name": "reputationtoken",
      "outputs": [
        {
          "internalType": "contract ReputationToken",
          "name": "",
          "type": "address"
        }
      ],
      "stateMutability": "view",
      "type": "function",
      "constant": true
    },
    {
      "inputs": [
        {
          "internalType": "address",
          "name": "",
          "type": "address"
        }
      ],
      "name": "reviewerExists",
      "outputs": [
        {
          "internalType": "bool",
          "name": "",
          "type": "bool"
        }
      ],
      "stateMutability": "view",
      "type": "function",
      "constant": true
    },
    {
      "inputs": [
        {
          "internalType": "uint256",
          "name": "",
          "type": "uint256"
        }
      ],
      "name": "reviewers",
      "outputs": [
        {
          "internalType": "address",
          "name": "",
          "type": "address"
        }
      ],
      "stateMutability": "view",
      "type": "function",
      "constant": true
    },
    {
      "inputs": [
        {
          "internalType": "string",
          "name": "_title",
          "type": "string"
        }
      ],
      "name": "createPaper",
      "outputs": [],
      "stateMutability": "nonpayable",
      "type": "function"
    },
    {
      "inputs": [
        {
          "internalType": "uint256",
          "name": "_id",
          "type": "uint256"
        },
        {
          "internalType": "address payable",
          "name": "_reviewer",
          "type": "address"
        },
        {
          "internalType": "string",
          "name": "review",
          "type": "string"
        }
      ],
      "name": "addReviewer",
      "outputs": [],
      "stateMutability": "nonpayable",
      "type": "function"
    },
    {
      "inputs": [
        {
          "internalType": "uint256",
          "name": "_id",
          "type": "uint256"
        },
        {
          "internalType": "address payable",
          "name": "_reviewer",
          "type": "address"
        }
      ],
      "name": "tipReviewer",
      "outputs": [],
      "stateMutability": "payable",
      "type": "function",
      "payable": true
    },
    {
      "inputs": [
        {
          "internalType": "uint256",
          "name": "_id",
          "type": "uint256"
        },
        {
          "internalType": "address payable",
          "name": "_reviewer",
          "type": "address"
        }
      ],
      "name": "giveReputation",
      "outputs": [],
      "stateMutability": "payable",
      "type": "function",
      "payable": true
    },
    {
      "inputs": [
        {
          "internalType": "uint256",
          "name": "_id",
          "type": "uint256"
        },
        {
          "internalType": "address payable",
          "name": "_reviewer",
          "type": "address"
        }
      ],
      "name": "undoGiveReputation",
      "outputs": [],
      "stateMutability": "payable",
      "type": "function",
      "payable": true
    },
    {
      "inputs": [
        {
          "internalType": "address",
          "name": "_reviewer",
          "type": "address"
        }
      ],
      "name": "getReputation",
      "outputs": [
        {
          "internalType": "uint256",
          "name": "",
          "type": "uint256"
        }
      ],
      "stateMutability": "view",
      "type": "function",
      "constant": true
    },
    {
      "inputs": [
        {
          "internalType": "uint256",
          "name": "_id",
          "type": "uint256"
        },
        {
          "internalType": "address payable",
          "name": "_reviewer",
          "type": "address"
        },
        {
          "internalType": "uint256",
          "name": "_awardId",
          "type": "uint256"
        },
        {
          "internalType": "string",
          "name": "hashIPFS",
          "type": "string"
        },
        {
          "internalType": "string",
          "name": "reviewId",
          "type": "string"
        }
      ],
      "name": "giveAward",
      "outputs": [],
      "stateMutability": "payable",
      "type": "function",
      "payable": true
    },
    {
      "inputs": [
        {
          "internalType": "address",
          "name": "_reviewer",
          "type": "address"
        },
        {
          "internalType": "uint256",
          "name": "_id",
          "type": "uint256"
        }
      ],
      "name": "getAward",
      "outputs": [
        {
          "components": [
            {
              "internalType": "uint256",
              "name": "id",
              "type": "uint256"
            },
            {
              "internalType": "address",
              "name": "reviewer",
              "type": "address"
            },
            {
              "internalType": "address",
              "name": "sender",
              "type": "address"
            },
            {
              "internalType": "uint256",
              "name": "awardId",
              "type": "uint256"
            },
            {
              "internalType": "string",
              "name": "hashIPFS",
              "type": "string"
            },
            {
              "internalType": "string",
              "name": "reviewId",
              "type": "string"
            }
          ],
          "internalType": "struct Rewards.Award",
          "name": "",
          "type": "tuple"
        }
      ],
      "stateMutability": "view",
      "type": "function",
      "constant": true
    },
    {
      "inputs": [
        {
          "internalType": "address",
          "name": "_reviewer",
          "type": "address"
        }
      ],
      "name": "getAwardsBalance",
      "outputs": [
        {
          "internalType": "uint256",
          "name": "",
          "type": "uint256"
        }
      ],
      "stateMutability": "view",
      "type": "function",
      "constant": true
    },
    {
      "inputs": [],
      "name": "getReviewers",
      "outputs": [
        {
          "internalType": "address[]",
          "name": "",
          "type": "address[]"
        }
      ],
      "stateMutability": "view",
      "type": "function",
      "constant": true
    },
    {
      "inputs": [
        {
          "internalType": "uint256",
          "name": "_id",
          "type": "uint256"
        }
      ],
      "name": "getPaperReviewers",
      "outputs": [
        {
          "internalType": "address[]",
          "name": "",
          "type": "address[]"
        }
      ],
      "stateMutability": "view",
      "type": "function",
      "constant": true
    },
    {
      "inputs": [
        {
          "internalType": "uint256",
          "name": "_id",
          "type": "uint256"
        },
        {
          "internalType": "address",
          "name": "_reviewer",
          "type": "address"
        }
      ],
      "name": "getPaperReviewsByReviewer",
      "outputs": [
        {
          "internalType": "string",
          "name": "",
          "type": "string"
        }
      ],
      "stateMutability": "view",
      "type": "function",
      "constant": true
    },
    {
      "inputs": [
        {
          "internalType": "string",
          "name": "reviewId",
          "type": "string"
        }
      ],
      "name": "getReviewerByReview",
      "outputs": [
        {
          "internalType": "address",
          "name": "",
          "type": "address"
        }
      ],
      "stateMutability": "view",
      "type": "function",
      "constant": true
    },
    {
      "inputs": [],
      "name": "getPaperCount",
      "outputs": [
        {
          "internalType": "uint256",
          "name": "",
          "type": "uint256"
        }
      ],
      "stateMutability": "view",
      "type": "function",
      "constant": true
    },
    {
      "inputs": [
        {
          "internalType": "uint256",
          "name": "_id",
          "type": "uint256"
        }
      ],
      "name": "getPaperReviewerCount",
      "outputs": [
        {
          "internalType": "uint256",
          "name": "",
          "type": "uint256"
        }
      ],
      "stateMutability": "view",
      "type": "function",
      "constant": true
    },
    {
      "inputs": [],
      "name": "getReviewersCount",
      "outputs": [
        {
          "internalType": "uint256",
          "name": "",
          "type": "uint256"
        }
      ],
      "stateMutability": "view",
      "type": "function",
      "constant": true
    }
  ],
  "bytecode": "0x60806040523480156200001157600080fd5b5060405162002cf038038062002cf08339818101604052810190620000379190620000ef565b81600260006101000a81548173ffffffffffffffffffffffffffffffffffffffff021916908373ffffffffffffffffffffffffffffffffffffffff16021790555080600360006101000a81548173ffffffffffffffffffffffffffffffffffffffff021916908373ffffffffffffffffffffffffffffffffffffffff1602179055505050620001c0565b600081519050620000d2816200018c565b92915050565b600081519050620000e981620001a6565b92915050565b600080604083850312156200010357600080fd5b60006200011385828601620000d8565b92505060206200012685828601620000c1565b9150509250929050565b60006200013d826200016c565b9050919050565b6000620001518262000130565b9050919050565b6000620001658262000130565b9050919050565b600073ffffffffffffffffffffffffffffffffffffffff82169050919050565b620001978162000144565b8114620001a357600080fd5b50565b620001b18162000158565b8114620001bd57600080fd5b50565b612b2080620001d06000396000f3fe6080604052600436106101405760003560e01c80638217a3be116100b6578063acc3e3101161006f578063acc3e310146104c6578063cc87c91e14610503578063db9937341461051f578063dda7247b1461053b578063df4d693414610564578063ef5ddf78146105a157610140565b80638217a3be146103905780638c9b5e63146103bb5780638e881498146103e657806390a10f74146104235780639c89a0e21461044c5780639cc616f61461048957610140565b80633d7e97f2116101085780633d7e97f2146102555780633f2f3e57146102805780635c34e898146102bd5780635e775a27146102e857806361a5d6a81461032857806375a876431461036557610140565b80631789064f14610145578063249fd94b1461016157806327167bd51461019e578063305dd39d146101db578063316ed42e14610218575b600080fd5b61015f600480360381019061015a9190611f43565b6105bd565b005b34801561016d57600080fd5b5061018860048036038101906101839190611e0f565b61076f565b6040516101959190612547565b60405180910390f35b3480156101aa57600080fd5b506101c560048036038101906101c09190611e0f565b610823565b6040516101d291906124b2565b60405180910390f35b3480156101e757600080fd5b5061020260048036038101906101fd9190611eb5565b610843565b60405161020f9190612490565b60405180910390f35b34801561022457600080fd5b5061023f600480360381019061023a9190611eb5565b61092d565b60405161024c9190612547565b60405180910390f35b34801561026157600080fd5b5061026a610996565b6040516102779190612547565b60405180910390f35b34801561028c57600080fd5b506102a760048036038101906102a29190611e38565b6109a3565b6040516102b49190612525565b60405180910390f35b3480156102c957600080fd5b506102d2610b72565b6040516102df91906124e8565b60405180910390f35b3480156102f457600080fd5b5061030f600480360381019061030a9190611eb5565b610b98565b60405161031f9493929190612654565b60405180910390f35b34801561033457600080fd5b5061034f600480360381019061034a9190611e74565b610c80565b60405161035c91906124b2565b60405180910390f35b34801561037157600080fd5b5061037a610cb6565b6040516103879190612490565b60405180910390f35b34801561039c57600080fd5b506103a5610d44565b6040516103b29190612547565b60405180910390f35b3480156103c757600080fd5b506103d0610d51565b6040516103dd91906124cd565b60405180910390f35b3480156103f257600080fd5b5061040d60048036038101906104089190611e74565b610d77565b60405161041a91906124b2565b60405180910390f35b34801561042f57600080fd5b5061044a60048036038101906104459190611e74565b610dad565b005b34801561045857600080fd5b50610473600480360381019061046e9190611e0f565b610e8f565b6040516104809190612547565b60405180910390f35b34801561049557600080fd5b506104b060048036038101906104ab9190611eb5565b610f43565b6040516104bd919061241c565b60405180910390f35b3480156104d257600080fd5b506104ed60048036038101906104e89190611e74565b610f82565b6040516104fa919061241c565b60405180910390f35b61051d60048036038101906105189190611f43565b610fca565b005b6105396004803603810190610534919061209f565b61113e565b005b34801561054757600080fd5b50610562600480360381019061055d9190612038565b6113b3565b005b34801561057057600080fd5b5061058b60048036038101906105869190611f07565b611889565b6040516105989190612503565b60405180910390f35b6105bb60048036038101906105b69190611f43565b6119b9565b005b60048054905082106105ce57600080fd5b3460048381548110610609577f4e487b7100000000000000000000000000000000000000000000000000000000600052603260045260246000fd5b906000526020600020906006020160020160008282546106299190612822565b925050819055508073ffffffffffffffffffffffffffffffffffffffff166108fc349081150290604051600060405180830381858888f19350505050158015610676573d6000803e3d6000fd5b507f53f38d23892c8f39da949a3f0104a3792f839931ef190898ad7535f1109b39bb82600484815481106106d3577f4e487b7100000000000000000000000000000000000000000000000000000000600052603260045260246000fd5b9060005260206000209060060201600101346004868154811061071f577f4e487b7100000000000000000000000000000000000000000000000000000000600052603260045260246000fd5b906000526020600020906006020160030160009054906101000a900473ffffffffffffffffffffffffffffffffffffffff16856040516107639594939291906126ec565b60405180910390a15050565b6000600360009054906101000a900473ffffffffffffffffffffffffffffffffffffffff1673ffffffffffffffffffffffffffffffffffffffff166370a08231836040518263ffffffff1660e01b81526004016107cc919061241c565b60206040518083038186803b1580156107e457600080fd5b505afa1580156107f8573d6000803e3d6000fd5b505050506040513d601f19601f8201168201806040525081019061081c9190611ede565b9050919050565b60056020528060005260406000206000915054906101000a900460ff1681565b6060600480549050821061085657600080fd5b60048281548110610890577f4e487b7100000000000000000000000000000000000000000000000000000000600052603260045260246000fd5b906000526020600020906006020160040180548060200260200160405190810160405280929190818152602001828054801561092157602002820191906000526020600020905b8160009054906101000a900473ffffffffffffffffffffffffffffffffffffffff1673ffffffffffffffffffffffffffffffffffffffff16815260200190600101908083116108d7575b50505050509050919050565b6000600480549050821061094057600080fd5b6004828154811061097a577f4e487b7100000000000000000000000000000000000000000000000000000000600052603260045260246000fd5b9060005260206000209060060201600401805490509050919050565b6000600480549050905090565b6109ab611bd1565b6000600760008573ffffffffffffffffffffffffffffffffffffffff1673ffffffffffffffffffffffffffffffffffffffff16815260200190815260200160002090506000818481548110610a29577f4e487b7100000000000000000000000000000000000000000000000000000000600052603260045260246000fd5b906000526020600020018054610a3e906129a4565b80601f0160208091040260200160405190810160405280929190818152602001828054610a6a906129a4565b8015610ab75780601f10610a8c57610100808354040283529160200191610ab7565b820191906000526020600020905b815481529060010190602001808311610a9a57829003601f168201915b50505050509050610ac6611bd1565b81806020019051810190610ada9190611f7f565b866000018760200188604001896060018a6080018b60a001869052869052868152508673ffffffffffffffffffffffffffffffffffffffff1673ffffffffffffffffffffffffffffffffffffffff168152508673ffffffffffffffffffffffffffffffffffffffff1673ffffffffffffffffffffffffffffffffffffffff168152508681525050505050505080935050505092915050565b600260009054906101000a900473ffffffffffffffffffffffffffffffffffffffff1681565b60048181548110610ba857600080fd5b9060005260206000209060060201600091509050806000015490806001018054610bd1906129a4565b80601f0160208091040260200160405190810160405280929190818152602001828054610bfd906129a4565b8015610c4a5780601f10610c1f57610100808354040283529160200191610c4a565b820191906000526020600020905b815481529060010190602001808311610c2d57829003601f168201915b5050505050908060020154908060030160009054906101000a900473ffffffffffffffffffffffffffffffffffffffff16905084565b6000818051602081018201805184825260208301602085012081835280955050505050506000915054906101000a900460ff1681565b60606006805480602002602001604051908101604052809291908181526020018280548015610d3a57602002820191906000526020600020905b8160009054906101000a900473ffffffffffffffffffffffffffffffffffffffff1673ffffffffffffffffffffffffffffffffffffffff1681526020019060010190808311610cf0575b5050505050905090565b6000600680549050905090565b600360009054906101000a900473ffffffffffffffffffffffffffffffffffffffff1681565b6001818051602081018201805184825260208301602085012081835280955050505050506000915054906101000a900460ff1681565b6000815111610dbb57600080fd5b600060046001816001815401808255809150500390600052602060002090600602019050600480549050816000018190555081816001019080519060200190610e05929190611c33565b50338160030160006101000a81548173ffffffffffffffffffffffffffffffffffffffff021916908373ffffffffffffffffffffffffffffffffffffffff1602179055507f75dbed2f4b10560e83c412e477ae7d3cc865ad4b331fd9d3bedb9d1caf36b149816000015483600033604051610e839493929190612608565b60405180910390a15050565b6000600260009054906101000a900473ffffffffffffffffffffffffffffffffffffffff1673ffffffffffffffffffffffffffffffffffffffff166370a08231836040518263ffffffff1660e01b8152600401610eec919061241c565b60206040518083038186803b158015610f0457600080fd5b505afa158015610f18573d6000803e3d6000fd5b505050506040513d601f19601f82011682018060405250810190610f3c9190611ede565b9050919050565b60068181548110610f5357600080fd5b906000526020600020016000915054906101000a900473ffffffffffffffffffffffffffffffffffffffff1681565b6000600882604051610f949190612405565b908152602001604051809103902060009054906101000a900473ffffffffffffffffffffffffffffffffffffffff169050919050565b6004805490508210610fdb57600080fd5b6000828233604051602001610ff293929190612562565b60405160208183030381529060405290506000816040516110139190612405565b908152602001604051809103902060009054906101000a900460ff1661103857600080fd5b600080826040516110499190612405565b908152602001604051809103902060006101000a81548160ff021916908315150217905550600260009054906101000a900473ffffffffffffffffffffffffffffffffffffffff1673ffffffffffffffffffffffffffffffffffffffff16639dc29fac8360016040518363ffffffff1660e01b81526004016110cc929190612467565b600060405180830381600087803b1580156110e657600080fd5b505af11580156110fa573d6000803e3d6000fd5b505050507f0c66462458ff8502ad0c2b7b30cbaf36c2f45a0c352050ec68a1380d4b623ac683833360405161113193929190612562565b60405180910390a1505050565b600480549050851061114f57600080fd5b6003831061115c57600080fd5b600060048681548110611198577f4e487b7100000000000000000000000000000000000000000000000000000000600052603260045260246000fd5b906000526020600020906006020160050160008673ffffffffffffffffffffffffffffffffffffffff1673ffffffffffffffffffffffffffffffffffffffff16815260200190815260200160002080546111f1906129a4565b905014156111fe57600080fd5b600085853386868660405160200161121b96959493929190612599565b604051602081830303815290604052905060018160405161123c9190612405565b908152602001604051809103902060009054906101000a900460ff161561126257600080fd5b600360009054906101000a900473ffffffffffffffffffffffffffffffffffffffff1673ffffffffffffffffffffffffffffffffffffffff1663d0def52186836040518363ffffffff1660e01b81526004016112bf929190612437565b600060405180830381600087803b1580156112d957600080fd5b505af11580156112ed573d6000803e3d6000fd5b50505050600760008673ffffffffffffffffffffffffffffffffffffffff1673ffffffffffffffffffffffffffffffffffffffff16815260200190815260200160002081908060018154018082558091505060019003906000526020600020016000909190919091509080519060200190611369929190611c33565b507fb634827bdd443c978e698abcbd7bfb43f7ee0df31190da9af0fe269bd5fb49508686338787876040516113a396959493929190612599565b60405180910390a1505050505050565b60048054905083106113c457600080fd5b600483815481106113fe577f4e487b7100000000000000000000000000000000000000000000000000000000600052603260045260246000fd5b906000526020600020906006020160030160009054906101000a900473ffffffffffffffffffffffffffffffffffffffff1673ffffffffffffffffffffffffffffffffffffffff168273ffffffffffffffffffffffffffffffffffffffff16141561146857600080fd5b600073ffffffffffffffffffffffffffffffffffffffff166008826040516114909190612405565b908152602001604051809103902060009054906101000a900473ffffffffffffffffffffffffffffffffffffffff1673ffffffffffffffffffffffffffffffffffffffff16146114df57600080fd5b816008826040516114f09190612405565b908152602001604051809103902060006101000a81548173ffffffffffffffffffffffffffffffffffffffff021916908373ffffffffffffffffffffffffffffffffffffffff16021790555060048381548110611576577f4e487b7100000000000000000000000000000000000000000000000000000000600052603260045260246000fd5b9060005260206000209060060201600401829080600181540180825580915050600190039060005260206000200160009091909190916101000a81548173ffffffffffffffffffffffffffffffffffffffff021916908373ffffffffffffffffffffffffffffffffffffffff1602179055508060048481548110611623577f4e487b7100000000000000000000000000000000000000000000000000000000600052603260045260246000fd5b906000526020600020906006020160050160008473ffffffffffffffffffffffffffffffffffffffff1673ffffffffffffffffffffffffffffffffffffffff1681526020019081526020016000209080519060200190611684929190611c33565b50600560008373ffffffffffffffffffffffffffffffffffffffff1673ffffffffffffffffffffffffffffffffffffffff16815260200190815260200160002060009054906101000a900460ff16611792576001600560008473ffffffffffffffffffffffffffffffffffffffff1673ffffffffffffffffffffffffffffffffffffffff16815260200190815260200160002060006101000a81548160ff0219169083151502179055506006829080600181540180825580915050600190039060005260206000200160009091909190916101000a81548173ffffffffffffffffffffffffffffffffffffffff021916908373ffffffffffffffffffffffffffffffffffffffff1602179055505b7fda9d9532306ca391b9faab97df298b4a4ab517627ee3457239579de84f5acbd683600485815481106117ee577f4e487b7100000000000000000000000000000000000000000000000000000000600052603260045260246000fd5b906000526020600020906006020160010160048681548110611839577f4e487b7100000000000000000000000000000000000000000000000000000000600052603260045260246000fd5b906000526020600020906006020160030160009054906101000a900473ffffffffffffffffffffffffffffffffffffffff168560405161187c94939291906126a0565b60405180910390a1505050565b606060006118968461092d565b116118a057600080fd5b600483815481106118da577f4e487b7100000000000000000000000000000000000000000000000000000000600052603260045260246000fd5b906000526020600020906006020160050160008373ffffffffffffffffffffffffffffffffffffffff1673ffffffffffffffffffffffffffffffffffffffff1681526020019081526020016000208054611933906129a4565b80601f016020809104026020016040519081016040528092919081815260200182805461195f906129a4565b80156119ac5780601f10611981576101008083540402835291602001916119ac565b820191906000526020600020905b81548152906001019060200180831161198f57829003601f168201915b5050505050905092915050565b60048054905082106119ca57600080fd5b600060048381548110611a06577f4e487b7100000000000000000000000000000000000000000000000000000000600052603260045260246000fd5b906000526020600020906006020160050160008373ffffffffffffffffffffffffffffffffffffffff1673ffffffffffffffffffffffffffffffffffffffff1681526020019081526020016000208054611a5f906129a4565b90501415611a6c57600080fd5b6000828233604051602001611a8393929190612562565b6040516020818303038152906040529050600081604051611aa49190612405565b908152602001604051809103902060009054906101000a900460ff1615611aca57600080fd5b6001600082604051611adc9190612405565b908152602001604051809103902060006101000a81548160ff021916908315150217905550600260009054906101000a900473ffffffffffffffffffffffffffffffffffffffff1673ffffffffffffffffffffffffffffffffffffffff166340c10f198360016040518363ffffffff1660e01b8152600401611b5f929190612467565b600060405180830381600087803b158015611b7957600080fd5b505af1158015611b8d573d6000803e3d6000fd5b505050507fb0e2fdeb939f7c4bd17f4b82804b0a050950d5ccaaf3aa22206ea5b80bcdb914838333604051611bc493929190612562565b60405180910390a1505050565b6040518060c0016040528060008152602001600073ffffffffffffffffffffffffffffffffffffffff168152602001600073ffffffffffffffffffffffffffffffffffffffff1681526020016000815260200160608152602001606081525090565b828054611c3f906129a4565b90600052602060002090601f016020900481019282611c615760008555611ca8565b82601f10611c7a57805160ff1916838001178555611ca8565b82800160010185558215611ca8579182015b82811115611ca7578251825591602001919060010190611c8c565b5b509050611cb59190611cb9565b5090565b5b80821115611cd2576000816000905550600101611cba565b5090565b6000611ce9611ce48461276b565b612746565b905082815260208101848484011115611d0157600080fd5b611d0c848285612962565b509392505050565b6000611d27611d228461276b565b612746565b905082815260208101848484011115611d3f57600080fd5b611d4a848285612971565b509392505050565b600081359050611d6181612aa5565b92915050565b600081359050611d7681612abc565b92915050565b600081519050611d8b81612abc565b92915050565b600082601f830112611da257600080fd5b8135611db2848260208601611cd6565b91505092915050565b600082601f830112611dcc57600080fd5b8151611ddc848260208601611d14565b91505092915050565b600081359050611df481612ad3565b92915050565b600081519050611e0981612ad3565b92915050565b600060208284031215611e2157600080fd5b6000611e2f84828501611d52565b91505092915050565b60008060408385031215611e4b57600080fd5b6000611e5985828601611d52565b9250506020611e6a85828601611de5565b9150509250929050565b600060208284031215611e8657600080fd5b600082013567ffffffffffffffff811115611ea057600080fd5b611eac84828501611d91565b91505092915050565b600060208284031215611ec757600080fd5b6000611ed584828501611de5565b91505092915050565b600060208284031215611ef057600080fd5b6000611efe84828501611dfa565b91505092915050565b60008060408385031215611f1a57600080fd5b6000611f2885828601611de5565b9250506020611f3985828601611d52565b9150509250929050565b60008060408385031215611f5657600080fd5b6000611f6485828601611de5565b9250506020611f7585828601611d67565b9150509250929050565b60008060008060008060c08789031215611f9857600080fd5b6000611fa689828a01611dfa565b9650506020611fb789828a01611d7c565b9550506040611fc889828a01611d7c565b9450506060611fd989828a01611dfa565b935050608087015167ffffffffffffffff811115611ff657600080fd5b61200289828a01611dbb565b92505060a087015167ffffffffffffffff81111561201f57600080fd5b61202b89828a01611dbb565b9150509295509295509295565b60008060006060848603121561204d57600080fd5b600061205b86828701611de5565b935050602061206c86828701611d67565b925050604084013567ffffffffffffffff81111561208957600080fd5b61209586828701611d91565b9150509250925092565b600080600080600060a086880312156120b757600080fd5b60006120c588828901611de5565b95505060206120d688828901611d67565b94505060406120e788828901611de5565b935050606086013567ffffffffffffffff81111561210457600080fd5b61211088828901611d91565b925050608086013567ffffffffffffffff81111561212d57600080fd5b61213988828901611d91565b9150509295509295909350565b6000612152838361217c565b60208301905092915050565b612167816128d2565b82525050565b6121768161288a565b82525050565b61218581612878565b82525050565b61219481612878565b82525050565b60006121a5826127c1565b6121af81856127e4565b93506121ba8361279c565b8060005b838110156121eb5781516121d28882612146565b97506121dd836127d7565b9250506001810190506121be565b5085935050505092915050565b6122018161289c565b82525050565b612210816128e4565b82525050565b61221f81612908565b82525050565b61222e8161292c565b82525050565b600061223f826127cc565b61224981856127f5565b9350612259818560208601612971565b61226281612a94565b840191505092915050565b6000612278826127cc565b6122828185612806565b9350612292818560208601612971565b61229b81612a94565b840191505092915050565b60006122b1826127cc565b6122bb8185612817565b93506122cb818560208601612971565b80840191505092915050565b600081546122e4816129a4565b6122ee8186612806565b94506001821660008114612309576001811461231b5761234e565b60ff198316865260208601935061234e565b612324856127ac565b60005b8381101561234657815481890152600182019150602081019050612327565b808801955050505b50505092915050565b600060c08301600083015161236f60008601826123e7565b506020830151612382602086018261217c565b506040830151612395604086018261217c565b5060608301516123a860608601826123e7565b50608083015184820360808601526123c08282612234565b91505060a083015184820360a08601526123da8282612234565b9150508091505092915050565b6123f0816128c8565b82525050565b6123ff816128c8565b82525050565b600061241182846122a6565b915081905092915050565b6000602082019050612431600083018461218b565b92915050565b600060408201905061244c600083018561215e565b818103602083015261245e818461226d565b90509392505050565b600060408201905061247c600083018561215e565b61248960208301846123f6565b9392505050565b600060208201905081810360008301526124aa818461219a565b905092915050565b60006020820190506124c760008301846121f8565b92915050565b60006020820190506124e26000830184612207565b92915050565b60006020820190506124fd6000830184612216565b92915050565b6000602082019050818103600083015261251d818461226d565b905092915050565b6000602082019050818103600083015261253f8184612357565b905092915050565b600060208201905061255c60008301846123f6565b92915050565b600060608201905061257760008301866123f6565b612584602083018561216d565b612591604083018461218b565b949350505050565b600060c0820190506125ae60008301896123f6565b6125bb602083018861216d565b6125c8604083018761218b565b6125d560608301866123f6565b81810360808301526125e7818561226d565b905081810360a08301526125fb818461226d565b9050979650505050505050565b600060808201905061261d60008301876123f6565b818103602083015261262f818661226d565b905061263e6040830185612225565b61264b606083018461218b565b95945050505050565b600060808201905061266960008301876123f6565b818103602083015261267b818661226d565b905061268a60408301856123f6565b612697606083018461218b565b95945050505050565b60006080820190506126b560008301876123f6565b81810360208301526126c781866122d7565b90506126d6604083018561218b565b6126e3606083018461216d565b95945050505050565b600060a08201905061270160008301886123f6565b818103602083015261271381876122d7565b905061272260408301866123f6565b61272f606083018561218b565b61273c608083018461216d565b9695505050505050565b6000612750612761565b905061275c82826129d6565b919050565b6000604051905090565b600067ffffffffffffffff82111561278657612785612a65565b5b61278f82612a94565b9050602081019050919050565b6000819050602082019050919050565b60008190508160005260206000209050919050565b600081519050919050565b600081519050919050565b6000602082019050919050565b600082825260208201905092915050565b600082825260208201905092915050565b600082825260208201905092915050565b600081905092915050565b600061282d826128c8565b9150612838836128c8565b9250827fffffffffffffffffffffffffffffffffffffffffffffffffffffffffffffffff0382111561286d5761286c612a07565b5b828201905092915050565b6000612883826128a8565b9050919050565b6000612895826128a8565b9050919050565b60008115159050919050565b600073ffffffffffffffffffffffffffffffffffffffff82169050919050565b6000819050919050565b60006128dd8261293e565b9050919050565b60006128ef826128f6565b9050919050565b6000612901826128a8565b9050919050565b60006129138261291a565b9050919050565b6000612925826128a8565b9050919050565b6000612937826128c8565b9050919050565b600061294982612950565b9050919050565b600061295b826128a8565b9050919050565b82818337600083830152505050565b60005b8381101561298f578082015181840152602081019050612974565b8381111561299e576000848401525b50505050565b600060028204905060018216806129bc57607f821691505b602082108114156129d0576129cf612a36565b5b50919050565b6129df82612a94565b810181811067ffffffffffffffff821117156129fe576129fd612a65565b5b80604052505050565b7f4e487b7100000000000000000000000000000000000000000000000000000000600052601160045260246000fd5b7f4e487b7100000000000000000000000000000000000000000000000000000000600052602260045260246000fd5b7f4e487b7100000000000000000000000000000000000000000000000000000000600052604160045260246000fd5b6000601f19601f8301169050919050565b612aae81612878565b8114612ab957600080fd5b50565b612ac58161288a565b8114612ad057600080fd5b50565b612adc816128c8565b8114612ae757600080fd5b5056fea2646970667358221220cd866697ceb711331f280784cca0c1bd51dd72fcd59f86e30f178bfec70707b064736f6c63430008010033",
  "immutableReferences": {},
  "source": "pragma solidity ^0.8.0;\r\n\r\nimport \"./ReputationToken.sol\";\r\nimport \"./AwardsToken.sol\";\r\n\r\nuint constant REPUTATION = 1;\r\n\r\ncontract Rewards {\r\n    mapping(string => bool) public hasGivenReputation;\r\n    mapping(string => bool) public hasGivenAward;\r\n    ReputationToken public reputationtoken;\r\n    AwardsToken public awardsToken;\r\n\r\n    constructor(ReputationToken _reputationToken, AwardsToken _awardsToken) {\r\n        reputationtoken = _reputationToken;\r\n        awardsToken = _awardsToken;\r\n    }\r\n\r\n    struct Award {\r\n        uint id;\r\n        address reviewer;\r\n        address sender;\r\n        uint awardId;\r\n        string hashIPFS;\r\n        string reviewId;\r\n    }\r\n\r\n    struct Paper {\r\n        uint id;\r\n        string title;\r\n        uint tipAmount;\r\n        address author;\r\n        address[] reviewers;\r\n        mapping(address => string) reviews; //TODO update to array of strings\r\n    }\r\n\r\n    Paper[] public papers;\r\n    mapping(address => bool) public reviewerExists;\r\n    address[] public reviewers;\r\n    mapping(address => string []) awards;\r\n    mapping(string => address) reviews;\r\n\r\n    event PaperCreated(\r\n        uint id,\r\n        string title,\r\n        uint tipAmount,\r\n        address author\r\n    );\r\n\r\n    event ReviewerAdded(\r\n        uint id,\r\n        string title,\r\n        address author,\r\n        address payable reviewer\r\n    );\r\n\r\n    event ReviewerTipped(\r\n        uint id,\r\n        string title,\r\n        uint tipAmount,\r\n        address author,\r\n        address payable reviewer\r\n    );\r\n\r\n    event ReputationGiven(\r\n        uint id,\r\n        address payable reviewer,\r\n        address user\r\n    );\r\n\r\n    event ReputationTaken(\r\n        uint id,\r\n        address payable reviewer,\r\n        address user\r\n    );\r\n\r\n    event AwardGiven(\r\n        uint id,\r\n        address payable reviewer,\r\n        address user,\r\n        uint awardId,\r\n        string hashIPFS,\r\n        string reviewId\r\n    );\r\n\r\n    function createPaper(string memory _title) public {\r\n        require(bytes(_title).length > 0);\r\n        Paper storage paper = papers.push();\r\n        paper.id = papers.length;\r\n        paper.title = _title;\r\n        paper.author = msg.sender;\r\n        emit PaperCreated(paper.id, _title, 0, msg.sender);\r\n    }\r\n\r\n    function addReviewer(uint _id, address payable _reviewer, string memory review) public {\r\n        require(_id < papers.length);\r\n        require(_reviewer != papers[_id].author);\r\n        require(reviews[review]==address(0x0));\r\n        reviews[review] = _reviewer;\r\n        papers[_id].reviewers.push(_reviewer);\r\n        papers[_id].reviews[_reviewer] = review;\r\n        \r\n        if(!reviewerExists[_reviewer]){\r\n            reviewerExists[_reviewer] = true;\r\n            reviewers.push(_reviewer);\r\n        }\r\n\r\n        emit ReviewerAdded(_id, papers[_id].title, papers[_id].author, _reviewer);\r\n    }\r\n\r\n    function tipReviewer(uint _id, address payable _reviewer) public payable{\r\n        require(_id < papers.length);\r\n\r\n        papers[_id].tipAmount += msg.value;\r\n        _reviewer.transfer(msg.value);\r\n\r\n        emit ReviewerTipped(_id, papers[_id].title, msg.value, papers[_id].author, _reviewer);\r\n    }\r\n\r\n    function giveReputation(uint _id, address payable _reviewer) public payable{\r\n        require(_id < papers.length);\r\n        require(bytes(papers[_id].reviews[_reviewer]).length != 0);\r\n        string memory _hash = string(abi.encode(_id, _reviewer, msg.sender));\r\n        require(!hasGivenReputation[_hash]);\r\n        hasGivenReputation[_hash] = true;\r\n        reputationtoken.mint(_reviewer, REPUTATION);\r\n\r\n        emit ReputationGiven(_id,  _reviewer, msg.sender);\r\n    }\r\n\r\n    function undoGiveReputation(uint _id, address payable _reviewer) public payable{\r\n        require(_id < papers.length);\r\n        string memory _hash = string(abi.encode(_id, _reviewer, msg.sender));\r\n        require(hasGivenReputation[_hash]);\r\n        hasGivenReputation[_hash] = false;\r\n        reputationtoken.burn(_reviewer, REPUTATION);\r\n\r\n        emit ReputationTaken(_id,  _reviewer, msg.sender);\r\n    }\r\n\r\n    function getReputation(address _reviewer) public view returns (uint256) {\r\n        return reputationtoken.balanceOf(_reviewer);\r\n    }\r\n    function giveAward(uint _id, address payable _reviewer, uint _awardId, string memory hashIPFS, string memory reviewId ) public payable{\r\n        require(_id < papers.length);\r\n        require(_awardId < 3);\r\n        require(bytes(papers[_id].reviews[_reviewer]).length != 0);\r\n        string memory _hash = string(abi.encode(_id, _reviewer, msg.sender, _awardId, hashIPFS, reviewId));\r\n        require(!hasGivenAward[_hash]);\r\n        awardsToken.mint(_reviewer, _hash);\r\n        awards[_reviewer].push(_hash);\r\n\r\n        emit AwardGiven(_id,  _reviewer, msg.sender, _awardId, hashIPFS, reviewId);\r\n    }\r\n\r\n    function getAward(address _reviewer, uint _id) public view returns (Award memory){\r\n        string [] storage hashes = awards[_reviewer];\r\n        string memory _hash = hashes[_id];\r\n        Award memory a;\r\n        (a.id, a.reviewer, a.sender, a.awardId, a.hashIPFS, a.reviewId) = (abi.decode(bytes(_hash), (uint , address, address, uint, string, string)));\r\n        return a;\r\n    }\r\n\r\n    function getAwardsBalance(address _reviewer) public view returns (uint){\r\n        return awardsToken.balanceOf(_reviewer);\r\n    }\r\n\r\n    function getReviewers() public view returns (address [] memory){\r\n        return reviewers;\r\n    }\r\n\r\n    function getPaperReviewers(uint _id) public view returns (address [] memory){\r\n        require(_id < papers.length);\r\n        return papers[_id].reviewers;\r\n    }\r\n\r\n    function getPaperReviewsByReviewer(uint _id, address _reviewer) public view returns (string memory){\r\n        require(getPaperReviewerCount(_id) > 0);\r\n        return papers[_id].reviews[_reviewer];\r\n    }\r\n\r\n    function getReviewerByReview(string memory reviewId) public view returns (address){\r\n        return reviews[reviewId];\r\n    }\r\n\r\n    function getPaperCount() public view returns (uint256) {\r\n        return papers.length;\r\n    }\r\n\r\n    function getPaperReviewerCount(uint _id) public view returns (uint256) {\r\n        require(_id < papers.length);\r\n        return papers[_id].reviewers.length;\r\n    }\r\n\r\n    function getReviewersCount() public view returns (uint256){\r\n        return reviewers.length;\r\n    }\r\n}",
  "sourcePath": "C:/Users/carlo/Desktop/UCM/TFG/popup/Rewards/rewards-app/contracts/Rewards.sol",
  "compiler": {
    "name": "solc",
    "version": "0.8.1+commit.df193b15.Emscripten.clang"
  },
  "schemaVersion": "3.4.0",
  "updatedAt": "2021-05-19T20:17:29.874Z",
  "networkType": "ethereum",
  "devdoc": {
    "kind": "dev",
    "methods": {},
    "version": 1
  },
  "userdoc": {
    "kind": "user",
    "methods": {},
    "version": 1
  }
}